:020000040000FA
:10000000700200106D01000071010000730100001A
:100010007501000077010000790100000000000078
:100020000000000000000000000000007B01000054
:100030007D010000000000007F0100008101000040
:1000400083010000830100008301000083010000A0
:100050008301000083010000830100008301000090
:100060002D020000830100008301000083010000D5
:100070008301000083010000830100008301000070
:100080008301000083010000830100008301000060
:100090008301000083010000830100008301000050
:1000A0008301000083010000830100008301000040
:1000B0008301000083010000830100008301000030
:1000C00083010000830100008301000000F002F8BA
:1000D00000F03CF80AA090E8000C82448344AAF1A6
:1000E0000107DA4501D100F031F8AFF2090EBAE8A4
:1000F0000F0013F0010F18BFFB1A43F0010318475C
:100100005C0400007C040000103A24BF78C878C169
:10011000FAD8520724BF30C830C144BF04680C600D
:10012000704700000023002400250026103A28BF55
:1001300078C1FBD8520728BF30C148BF0B60704759
:100140001FB500F0CEF81FBD10B510BD00F089F846
:100150001146FFF7F5FF00F04BF800F0A7F803B4E5
:10016000FFF7F2FF03BC00F0B1F8000008480047B9
:10017000FEE7FEE7FEE7FEE7FEE7FEE7FEE7FEE757
:10018000FEE7FEE703480449024A044B70470000BB
:10019000CD00000070000010700200107000001010
:1001A0002849087070474FF00070274908604FF4E5
:1001B00000202649C1F8AC012248406840F0010007
:1001C000204948604FF00A00214908601D48007B23
:1001D00040F080001B4908734FF0EB0008700846A0
:1001E000007B20F0800008734FF003000873704715
:1001F00010B500F085F8FFF7D6FF00BF08210120F9
:10020000884049094FF0E02202EB8101C1F800016A
:1002100000BF0AE00F480068012806D10E480078A8
:10022000FFF7BEFF00200B490860F3E70548806830
:10023000042806D1034800780749087001200549C1
:100240000860704700C00940C4C00F4000C00F40A4
:1002500000C002400000001004000010704770470A
:100260007047754600F028F8AE46050069465346CB
:1002700020F00700854618B020B5FFF783FFBDE8E2
:1002800020404FF000064FF000074FF000084FF0FD
:10029000000B21F00701AC46ACE8C009ACE8C0098E
:1002A000ACE8C009ACE8C0098D4670470446AFF31E
:1002B00000802046FFF753FF004870470C000010F5
:1002C00001487047704700001000001003494FF0CC
:1002D0001800ABBE704700000900000026000200B5
:1002E000704710B5FFF7ECFF4FF00001016010BD43
:1002F000000000000000000000000000FFFFFFFF02
:1003000020208449086000BF8248006810F0400F38
:10031000FAD00320804908604FF000007F49C1F8FF
:10032000A8017F4908604FF001007E4908604FF046
:100330000B007D4908604FF00100A1F10401086045
:100340004FF0AA00794908604FF055007349C1F891
:100350008C0000BF7648006810F0806FFAD0032050
:10036000744908604FF0AA006C49C1F88C004FF046
:1003700055006E4908604FF023006F4908604FF048
:100380000100A1F1040108604FF0AA006B49086068
:100390004FF05500086000BF6948006810F4806F96
:1003A000FAD00320674908604FF0AA005B49C1F802
:1003B000AC004FF05500614908606348634908602C
:1003C0004FF000005549C1F8C8010846D0F8880030
:1003D000C0F30160032868D15248006810F00300A0
:1003E00006D0012823D002283FD003285CD100E0AA
:1003F00000BF4F480068C0F30E0000F101004FEA53
:1004000040014648D0F88800C0F3074000F10100E1
:10041000B1FBF0F14E4801FB00F13F480068C0B26B
:1004200000F10100B1FBF0F04A4908603CE04048AF
:100430000068C0F30E0000F101004FEA40013748A8
:10044000D0F88800C0F3074000F10100B1FBF0F1E3
:10045000414801FB00F130480068C0B200F10100E2
:10046000B1FBF0F03B4908601EE031480068C0F382
:100470000E0000F101004FEA40012848D0F8880042
:10048000C0F3074000F10100B1FBF0F14FF4FA4076
:1004900001FB00F120480068C0B200F10100B1FB8F
:1004A000F0F02C49086000BF2FE01E48006810F0F3
:1004B000030006D0012810D0022819D0032823D128
:1004C00000E000BF14480068C0B200F101002049FC
:1004D000B1FBF0F01F49086016E00F480068C0B299
:1004E00000F101001C49B1FBF0F01A4908600BE073
:1004F00009480068C0B200F101004FF4FA41B1FBB5
:10050000F0F01449086000BF00BF43F23A0003490D
:1005100008607047A0C10F4004C10F4000C00F40E9
:10052000ACC10F400CC10F4084C00F408CC00F40C5
:1005300088C00F4080C00F40A4C00F40ACC00F4027
:10054000A8C00F40A0C00F40DE872804C4C00F40E1
:1005500000093D0008000010001BB7007C050000EA
:10056000000000100C0000000801000088050000D9
:100570000C000010640200002401000000000000D4
:080580000000000000093D002D
:04000005000000CD2A
:00000001FF
