:020000040000FA
:10000000680200106D010000710100007301000022
:100010007501000077010000790100000000000078
:100020000000000000000000000000007B01000054
:100030007D010000000000007F0100008101000040
:10004000830100001F020000830100008301000003
:100050008301000083010000830100008301000090
:100060008301000083010000830100008301000080
:100070008301000083010000830100008301000070
:100080008301000083010000830100008301000060
:100090008301000083010000830100008301000050
:1000A0008301000083010000830100008301000040
:1000B0008301000083010000830100008301000030
:1000C00083010000830100008301000000F002F8BA
:1000D00000F03CF80AA090E8000C82448344AAF1A6
:1000E0000107DA4501D100F031F8AFF2090EBAE8A4
:1000F0000F0013F0010F18BFFB1A43F0010318475C
:1001000080040000A0040000103A24BF78C878C121
:10011000FAD8520724BF30C830C144BF04680C600D
:10012000704700000023002400250026103A28BF55
:1001300078C1FBD8520728BF30C148BF0B60704759
:100140001FB500F015FA1FBD10B510BD00F09BF8EB
:100150001146FFF7F5FF00F040F800F0B9F803B4DE
:10016000FFF7F2FF03BC00F0F9F900000848004770
:10017000FEE7FEE7FEE7FEE7FEE7FEE7FEE7FEE757
:10018000FEE7FEE703480449024A044B70470000BB
:10019000CD00000068000010680200106800001028
:1001A00048F202002F4908604FF004002E49C1F8C0
:1001B000A8014FF000004FF0402108672B48C860AD
:1001C0004FF0020048604FF0010048604FF003001C
:1001D00048614FF47A708861704710B500F090F86C
:1001E000FFF7DEFF2248006920F440002049086143
:1001F0002048007840F008001F4981F8410000BF06
:100200004FF0010000FA00F14FEA50104FF0E022E9
:1002100002EB8000C0F8001100BF00BFFEE7012024
:100220004FF0402108601548006858B90120134973
:1002300008601048401E407E40F008010D48401EF6
:1002400041760AE000200D4908600A48401E407FC0
:1002500040F008010748401E417700204FF0402140
:1002600088607047C4C00F4000C00F403F190100B4
:1002700000C0024041C0092000C009200000001059
:10028000704770477047754600F028F8AE46050085
:100290006946534620F00700854618B020B5FFF7A1
:1002A00071FFBDE820404FF000064FF000074FF00F
:1002B00000084FF0000B21F00701AC46ACE8C00984
:1002C000ACE8C009ACE8C009ACE8C0098D4670478D
:1002D0000446AFF300802046FFF741FF0048704717
:1002E0000800001001487047704700000C00001023
:1002F000704700000000000000000000FFFFFFFF4B
:1003000020208449086000BF8248006810F0400F38
:10031000FAD00320804908604FF000007F49C1F8FF
:10032000A8017F4908604FF001007E4908604FF046
:100330000B007D4908604FF00100A1F10401086045
:100340004FF0AA00794908604FF055007349C1F891
:100350008C0000BF7648006810F0806FFAD0032050
:10036000744908604FF0AA006C49C1F88C004FF046
:1003700055006E4908604FF023006F4908604FF048
:100380000100A1F1040108604FF0AA006B49086068
:100390004FF05500086000BF6948006810F4806F96
:1003A000FAD00320674908604FF0AA005B49C1F802
:1003B000AC004FF05500614908606348634908602C
:1003C0004FF000005549C1F8C8010846D0F8880030
:1003D000C0F30160032868D15248006810F00300A0
:1003E00006D0012823D002283FD003285CD100E0AA
:1003F00000BF4F480068C0F30E0000F101004FEA53
:1004000040014648D0F88800C0F3074000F10100E1
:10041000B1FBF0F14E4801FB00F13F480068C0B26B
:1004200000F10100B1FBF0F04A4908603CE04048AF
:100430000068C0F30E0000F101004FEA40013748A8
:10044000D0F88800C0F3074000F10100B1FBF0F1E3
:10045000414801FB00F130480068C0B200F10100E2
:10046000B1FBF0F03B4908601EE031480068C0F382
:100470000E0000F101004FEA40012848D0F8880042
:10048000C0F3074000F10100B1FBF0F14FF4FA4076
:1004900001FB00F120480068C0B200F10100B1FB8F
:1004A000F0F02C49086000BF2FE01E48006810F0F3
:1004B000030006D0012810D0022819D0032823D128
:1004C00000E000BF14480068C0B200F101002049FC
:1004D000B1FBF0F01F49086016E00F480068C0B299
:1004E00000F101001C49B1FBF0F01A4908600BE073
:1004F00009480068C0B200F101004FF4FA41B1FBB5
:10050000F0F01449086000BF00BF43F23A0003490D
:1005100008607047A0C10F4004C10F4000C00F40E9
:10052000ACC10F400CC10F4084C00F408CC00F40C5
:1005300088C00F4080C00F40A4C00F40ACC00F4027
:10054000A8C00F40A0C00F40DE872804C4C00F40E1
:1005500000093D0004000010001BB70003494FF0E4
:100560001800ABBE7047000089FDFFFF26000200A7
:1005700010B5FFF7B7FE4FF00001016010BD00009D
:10058000A0050000000000100800000008010000A5
:10059000A80500000800001060020000240100000F
:0805A0000000000000093D000D
:04000005000000CD2A
:00000001FF
