:020000040000FA
:100000006802001075010000790100007B0100000A
:100010007D0100007F010000810100000000000060
:10002000000000000000000000000000830100004C
:100030008501000000000000870100008901000028
:100040008B0100008B0100008B0100008B01000080
:100050008B0100008B0100008B0100008B01000070
:10006000810300008B0100008B0100008B01000068
:100070008B0100008B0100008B0100008B01000050
:100080008B0100008B0100008B0100008B01000040
:100090008B0100008B010000910300008B01000028
:1000A0008B0100008B0100008B0100008B01000020
:1000B0008B0100008B0100008B0100008B01000010
:1000C0008B0100008B0100008B01000000F002F8A2
:1000D00000F041F80AA090E8000C82448344AAF1A1
:1000E0000107DA4501D100F036F8AFF2090EBAE89F
:1000F0000F0013F0010F18BFFB1A43F0010318475C
:100100005407000074070000103A24BF78C878C173
:10011000FAD8520724BF30C830C144BF04680C600D
:10012000704700000023002400250026103A28BF55
:1001300078C1FBD8520728BF30C148BF0B60704759
:10014000642900F07D80002070471FB500F07AFB25
:100150001FBD10B510BD00F035FB1146FFF7F5FFD0
:1001600000F068F900F053FB03B4FFF7F2FF03BCA3
:1001700000F05EFB08480047FEE7FEE7FEE7FEE70B
:10018000FEE7FEE7FEE7FEE7FEE7FEE70348044979
:10019000024A044B70470000CD00000068000010C8
:1001A00068020010680000100FB408491CB506ABC7
:1001B0006A4679440090059800F085F80020694669
:1001C00000F094F81CBC5DF814FB0000370100003F
:1001D0002DE9F04104460E4600202BE0E168204660
:1001E000884748B3252802D0D4E901211FE0E168FF
:1001F00020460027884705001ED0A5F14100192898
:1002000002D820354FF40067324629462046276041
:10021000FFF796FF40B1012801D1361DDEE7F61D3C
:1002200026F007060836D9E7D4E901212846904789
:10023000206A401C2062D1E7206ABDE8F0810000FE
:100240002DE9F0418046002610687529414615A524
:1002500012D0AFF30080002803DAC0F1000012A52D
:1002600008E0D8F800108A0701D510A502E0490778
:1002700004D50FA5012601E0AFF30080002408F1AA
:10028000240704E000F096FA30313955641C002848
:10029000F8D133462A4621464046BDE8F04100F0F9
:1002A0002FBA0000000000002D0000002B0000000D
:1002B00020000000704770477047000001694A1C29
:1002C00002610878704710B50C46194690B0CDE928
:1002D000024200220692044A7A44CDE9042001A891
:1002E000FFF776FF10B010BDE1FFFFFF0A6802F8CC
:1002F000010B0A607047704700000000FFFFFFFF1E
:1003000010B5002807DACA06130E5C4A00F00F0485
:10031000241F135503E0CA06130E594A135410BD87
:100320004FF00070574908604FF400205649C1F85B
:10033000AC015648406840F00100544948605448B8
:10034000006840F00A00524908605048007B40F0C5
:1003500080004E4908734FF0EB0008700846007BA0
:1003600020F0800008734FF003000873704700BF4F
:100370004649097D11F0200FFAD0444908707047B2
:1003800000B5424802788368D8B2FFF7F0FF00BD9D
:10039000F8B54048846914F0004F20D03EA00068B2
:1003A0000090C4F30B1422463CA16846FFF7FCFE04
:1003B000002504E01DF80500FFF7D9FF6D1C042D92
:1003C000F8D30920FFF7D3FF002505E0002600E061
:1003D000761C232EFCD36D1C002DF7D000BFF8BD7A
:1003E0002848006840F480502749C1F8C4000846F6
:1003F000D0F8AC0140F08070C1F8AC0124484068EE
:1004000040F48020224948604FF0010021490860F3
:1004100008460068224940EA01001E490860084673
:10042000006840F47F4008600846C06840F004005F
:10043000C860704710B500F035F8FFF771FFFFF79F
:10044000CFFF162000F00DF8FF211620FFF758FF10
:10045000082000F006F800210820FFF751FF00BF38
:10046000FEE700F01F020121914042094FF0E02316
:1004700003EB8202C2F800117047000018ED00E0A3
:1004800000E400E0C4C00F4000C00F4000C00940BD
:1004900000C002400040034030303030256400008E
:1004A0000400210020208449086000BF82480068C1
:1004B00010F0400FFAD00320804908604FF0000090
:1004C0007F49C1F8A8017F4908604FF001007E49CB
:1004D00008604FF00B007D4908604FF00100A1F16A
:1004E000040108604FF0AA00794908604FF05500F8
:1004F0007349C1F88C0000BF7648006810F0806F27
:10050000FAD00320744908604FF0AA006C49C1F882
:100510008C004FF055006E4908604FF023006F4982
:1005200008604FF00100A1F1040108604FF0AA003B
:100530006B4908604FF05500086000BF69480068CB
:1005400010F4806FFAD00320674908604FF0AA00CA
:100550005B49C1F8AC004FF0550061490860634841
:10056000634908604FF000005549C1F8C8010846CA
:10057000D0F88800C0F30160032868D152480068B1
:1005800010F0030006D0012823D002283FD0032812
:100590005CD100E000BF4F480068C0F30E0000F1DE
:1005A00001004FEA40014648D0F88800C0F30740F8
:1005B00000F10100B1FBF0F14E4801FB00F13F48B2
:1005C0000068C0B200F10100B1FBF0F04A490860D8
:1005D0003CE040480068C0F30E0000F101004FEA23
:1005E00040013748D0F88800C0F3074000F101000F
:1005F000B1FBF0F1414801FB00F130480068C0B2A6
:1006000000F10100B1FBF0F03B4908601EE0314809
:100610000068C0F30E0000F101004FEA40012848D5
:10062000D0F88800C0F3074000F10100B1FBF0F101
:100630004FF4FA4001FB00F120480068C0B200F11D
:100640000100B1FBF0F02C49086000BF2FE01E480C
:10065000006810F0030006D0012810D0022819D03D
:10066000032823D100E000BF14480068C0B200F1A5
:1006700001002049B1FBF0F01F49086016E00F4867
:100680000068C0B200F101001C49B1FBF0F01A494A
:1006900008600BE009480068C0B200F101004FF4A7
:1006A000FA41B1FBF0F01449086000BF00BF43F20B
:1006B0003A00034908607047A0C10F4004C10F40D1
:1006C00000C00F40ACC10F400CC10F4084C00F40B0
:1006D0008CC00F4088C00F4080C00F40A4C00F40A6
:1006E000ACC00F40A8C00F40A0C00F40DE87280458
:1006F000C4C00F4000093D0000000010001BB700FF
:100700002DE9F0470D4604469246994600F124082B
:100710000168880604D5E06921F01001216000E03D
:1007200001200027A84201DDA0EB0507A16907EB26
:10073000050202EB0900A1EB0000A0612068C006E1
:1007400002D42046AFF30080002608E0D4E901215E
:100750001AF806009047206A401C761C20624E451D
:10076000F4DB2068C0060AD52046AFF3008006E01F
:10077000D4E9012130209047206A401C2062381EB5
:10078000A7F10107F4DC07E0D4E9012118F805001E
:100790009047206A401C2062281EA5F10105F3DC69
:1007A0002046AFF3008021680220090600D4012012
:1007B000BDE8F0874FF00A01B0FBF1F202FB110136
:1007C00010467047754600F029F8AE4605006946A8
:1007D000534620F00700854618B020B5FFF7D6FC39
:1007E000BDE820404FF000064FF000074FF0000832
:1007F0004FF0000B21F00701AC46ACE8C009ACE8B3
:10080000C009ACE8C009ACE8C0098D467047044691
:10081000AFF300802046FFF7A7FC000000487047B8
:1008200004000010014870477047000008000010E5
:1008300003494FF01800ABBE70470000BBFAFFFF42
:100840002600020010B5FFF7EDFF4FF00001016038
:1008500010BD00007408000000000010040000003B
:100860000801000078080000040000106402000085
:080870002401000000093D0015
:04000005000000CD2A
:00000001FF
