:020000040000FA
:10000000600200105101000055010000570100007E
:10001000590100005B0100005D01000000000000CC
:100020000000000000000000000000005F01000070
:100030006101000000000000630100006501000094
:100040006701000067010000670100006701000010
:100050006701000067010000670100006701000000
:1000600067010000670100006701000067010000F0
:1000700067010000670100006701000067010000E0
:1000800067010000670100006701000067010000D0
:1000900067010000670100006701000067010000C0
:1000A00067010000670100006701000067010000B0
:1000B00067010000670100006701000067010000A0
:1000C00067010000670100006701000000F002F80E
:1000D00000F02EF80AA090E8000C82448344AAF1B4
:1000E0000107DA4501D100F023F8AFF2090EBAE8B2
:1000F0000F0013F0010F18BFFB1A43F0010318475C
:1001000094010000A4010000002300240025002623
:10011000103A28BF78C1FBD8520728BF30C148BF6A
:100120000B6070471FB500F0AEF81FBD10B510BDD5
:1001300000F069F81146FFF7F5FF00F023F800F032
:1001400087F803B4FFF7F2FF03BC00F091F800005A
:1001500008480047FEE7FEE7FEE7FEE7FEE7FEE7AA
:10016000FEE7FEE7FEE7FEE703480449024A044BC8
:1001700070470000CD000000600000106002001019
:10018000600000101B4A126922F44002194B1A61E8
:10019000194A127842F00802184B83F8412027E0F0
:1001A000154A521E527E42F00803134A521E5376DD
:1001B000002005E0002100E0491C6429FCD3401C1C
:1001C00041F288329042F5D30B4A521E527F42F0E0
:1001D0000803094A521E5377002005E0002100E081
:1001E000491C6429FCD3401C41F288329042F5D36B
:1001F000D6E7000000C0024041C0092000C009202D
:10020000704770477047754600F028F8AE46050005
:100210006946534620F00700854618B020B5FFF721
:10022000A3FFBDE820404FF000064FF000074FF05D
:1002300000084FF0000B21F00701AC46ACE8C00904
:10024000ACE8C009ACE8C009ACE8C0098D4670470D
:100250000446AFF300802046FFF773FF0048704765
:1002600000000010014870477047000004000010B3
:1002700003494FF01800ABBE7047000009000000B2
:1002800026000200704710B5FFF7ECFF4FF00001A9
:10029000016010BD000300000000001060020000BB
:1002A0000801000000000000000000000000000045
:1002B000000000000000000000000000000000003E
:1002C000000000000000000000000000000000002E
:1002D000000000000000000000000000000000001E
:1002E000000000000000000000000000000000000E
:1002F000000000000000000000000000FFFFFFFF02
:04000005000000CD2A
:00000001FF
