:020000040000FA
:10000000680200106D010000710100007301000022
:100010007501000077010000790100000000000078
:100020000000000000000000000000007B01000054
:100030007D010000000000007F0100008101000040
:1000400083010000830100008301000083010000A0
:100050008301000083010000830100008301000090
:100060008301000083010000830100008301000080
:100070008301000099030000830100008301000058
:100080008301000083010000830100008301000060
:100090008301000083010000830100008301000050
:1000A0008301000083010000830100008301000040
:1000B0008301000083010000830100008301000030
:1000C00083010000830100008301000000F002F8BA
:1000D00000F03CF80AA090E8000C82448344AAF1A6
:1000E0000107DA4501D100F031F8AFF2090EBAE8A4
:1000F0000F0013F0010F18BFFB1A43F0010318475C
:100100003401000054010000103A24BF78C878C1BF
:10011000FAD8520724BF30C830C144BF04680C600D
:10012000704700000023002400250026103A28BF55
:1001300078C1FBD8520728BF30C148BF0B60704759
:100140001FB500F070F81FBD10B510BD00F02BF802
:100150001146FFF7F5FF00F062F900F049F803B42B
:10016000FFF7F2FF03BC00F053F800000848004717
:10017000FEE7FEE7FEE7FEE7FEE7FEE7FEE7FEE757
:10018000FEE7FEE703480449024A044B70470000BB
:10019000CD00000068000010680200106800001028
:1001A000704770477047754600F028F8AE46050066
:1001B0006946534620F00700854618B020B5FFF782
:1001C000E1FFBDE820404FF000064FF000074FF080
:1001D00000084FF0000B21F00701AC46ACE8C00965
:1001E000ACE8C009ACE8C009ACE8C0098D4670476E
:1001F0000446AFF300802046FFF7B1FF0048704788
:100200000800001001487047704700000C00001003
:1002100003494FF01800ABBE704700000900000012
:1002200026000200704710B5FFF7ECFF4FF0000109
:10023000016010BD940400000000001008000000E0
:10024000080100009C04000008000010600200008B
:100250002401000000000000000000000000000079
:10026000000000000000000000000000000000008E
:10027000000000000000000000000000000000007E
:10028000000000000000000000000000000000006E
:10029000000000000000000000000000000000005E
:1002A000000000000000000000000000000000004E
:1002B000000000000000000000000000000000003E
:1002C000000000000000000000000000000000002E
:1002D000000000000000000000000000000000001E
:1002E000000000000000000000000000000000000E
:1002F000000000000000000000000000FFFFFFFF02
:10030000002205E0002100E0491C8142FCD3521C80
:10031000B2F57A7FF6DB70475648006840F000403F
:10032000544908600846406840F02A004860524836
:10033000007840F08000514981F88000084690F82C
:10034000980040F080004E4908704FF000004D4981
:1003500008600846006840F0E00008604FF00F00B9
:10036000C8604FF00100C86170474549097841F005
:100370008001424A82F898104249886000BF414992
:10038000496811F0800FFAD03F49097841F08001A7
:100390003A4A82F89C10704701203A49C8613848AF
:1003A000007810F0800F06D13548007840F08000CA
:1003B000324981F898003548006858B92E484038CD
:1003C000407F40F008012C484038417701202F49F8
:1003D00008600AE028484038407E40F0080126487E
:1003E000403841760020294908602648806827491E
:1003F000091F08602348406808607047224909784F
:1004000041F080011D4A82F89C101E498860114607
:1004100091F8981041F0800182F89810704700B56B
:10042000FFF77AFF1A48007840F00800134981F876
:10043000410000BF4FF00D014FF0010000FA01F044
:100440004FEA51114FF0E02202EB8101C1F80001A7
:1004500000BF0DE00F20FFF7D1FF4FF47A70FFF7D8
:100460004FFFAA20FFF7CAFF4FF47A70FFF748FF4B
:10047000F0E7000000C0024080C0092000C0092051
:1004800098C00920000002409CC009200400001010
:0C04900041C00920000000000000000036
:04000005000000CD2A
:00000001FF
